{
  "abi": [
    {
      "inputs": [
        {
          "internalType": "address",
          "name": "tokenAddress",
          "type": "address"
        },
        {
          "internalType": "address",
          "name": "adminAddress",
          "type": "address"
        },
        {
          "internalType": "uint8",
          "name": "expectedDecimals",
          "type": "uint8"
        }
      ],
      "stateMutability": "nonpayable",
      "type": "constructor"
    },
    {
      "inputs": [
        {
          "internalType": "address",
          "name": "user",
          "type": "address"
        }
      ],
      "name": "DuplicateSeedUser",
      "type": "error"
    },
    {
      "inputs": [],
      "name": "InvalidAddress",
      "type": "error"
    },
    {
      "inputs": [],
      "name": "InvalidConfig",
      "type": "error"
    },
    {
      "inputs": [],
      "name": "InvalidSeedData",
      "type": "error"
    },
    {
      "inputs": [
        {
          "internalType": "uint256",
          "name": "minExpected",
          "type": "uint256"
        },
        {
          "internalType": "uint256",
          "name": "maxExpected",
          "type": "uint256"
        },
        {
          "internalType": "uint256",
          "name": "actual",
          "type": "uint256"
        }
      ],
      "name": "InvalidSeedDistribution",
      "type": "error"
    },
    {
      "inputs": [],
      "name": "NonExactTransferIn",
      "type": "error"
    },
    {
      "inputs": [],
      "name": "SafeTransferFromFailed",
      "type": "error"
    },
    {
      "inputs": [
        {
          "internalType": "uint256",
          "name": "expected",
          "type": "uint256"
        },
        {
          "internalType": "uint256",
          "name": "actual",
          "type": "uint256"
        }
      ],
      "name": "SeedSumMismatch",
      "type": "error"
    },
    {
      "inputs": [],
      "name": "Unauthorized",
      "type": "error"
    },
    {
      "inputs": [
        {
          "internalType": "uint8",
          "name": "expected",
          "type": "uint8"
        },
        {
          "internalType": "uint8",
          "name": "actual",
          "type": "uint8"
        }
      ],
      "name": "UnexpectedTokenDecimals",
      "type": "error"
    },
    {
      "anonymous": false,
      "inputs": [
        {
          "indexed": true,
          "internalType": "address",
          "name": "round",
          "type": "address"
        },
        {
          "indexed": true,
          "internalType": "address",
          "name": "admin",
          "type": "address"
        },
        {
          "indexed": true,
          "internalType": "address",
          "name": "merchant",
          "type": "address"
        },
        {
          "indexed": false,
          "internalType": "uint256",
          "name": "totalCost",
          "type": "uint256"
        },
        {
          "indexed": false,
          "internalType": "uint256",
          "name": "seedCount",
          "type": "uint256"
        },
        {
          "indexed": false,
          "internalType": "uint256",
          "name": "deadline",
          "type": "uint256"
        }
      ],
      "name": "RoundCreated",
      "type": "event"
    },
    {
      "inputs": [
        {
          "components": [
            {
              "internalType": "address",
              "name": "admin",
              "type": "address"
            },
            {
              "internalType": "address",
              "name": "merchant",
              "type": "address"
            },
            {
              "internalType": "uint256",
              "name": "totalCost",
              "type": "uint256"
            },
            {
              "internalType": "uint256",
              "name": "deadline",
              "type": "uint256"
            },
            {
              "internalType": "uint256",
              "name": "minParticipants",
              "type": "uint256"
            },
            {
              "internalType": "uint256",
              "name": "targetParticipants",
              "type": "uint256"
            },
            {
              "internalType": "uint256",
              "name": "maxParticipants",
              "type": "uint256"
            },
            {
              "internalType": "uint256",
              "name": "maxBatchSize",
              "type": "uint256"
            }
          ],
          "internalType": "struct GroupBuyFactory.CreateRoundParams",
          "name": "params",
          "type": "tuple"
        },
        {
          "internalType": "address[]",
          "name": "seedUsers",
          "type": "address[]"
        },
        {
          "internalType": "uint256[]",
          "name": "seedAmounts",
          "type": "uint256[]"
        }
      ],
      "name": "createRoundWithSeed",
      "outputs": [
        {
          "internalType": "address",
          "name": "roundAddress",
          "type": "address"
        }
      ],
      "stateMutability": "nonpayable",
      "type": "function"
    },
    {
      "inputs": [],
      "name": "factoryAdmin",
      "outputs": [
        {
          "internalType": "address",
          "name": "",
          "type": "address"
        }
      ],
      "stateMutability": "view",
      "type": "function"
    },
    {
      "inputs": [],
      "name": "token",
      "outputs": [
        {
          "internalType": "contract IERC20",
          "name": "",
          "type": "address"
        }
      ],
      "stateMutability": "view",
      "type": "function"
    }
  ],
  "bytecode": {
    "object": "0x60c06040523480156200001157600080fd5b506040516200346e3803806200346e83398101604081905262000034916200015b565b6001600160a01b03831615806200005257506001600160a01b038216155b15620000715760405163e6c4247b60e01b815260040160405180910390fd5b6000836001600160a01b031663313ce5676040518163ffffffff1660e01b8152600401602060405180830381865afa158015620000b2573d6000803e3d6000fd5b505050506040513d601f19601f82011682018060405250810190620000d89190620001a5565b90508160ff168160ff1614620001125760405163194c788760e01b815260ff80841660048301528216602482015260440160405180910390fd5b50506001600160a01b039182166080521660a052620001ca565b80516001600160a01b03811681146200014457600080fd5b919050565b805160ff811681146200014457600080fd5b6000806000606084860312156200017157600080fd5b6200017c846200012c565b92506200018c602085016200012c565b91506200019c6040850162000149565b90509250925092565b600060208284031215620001b857600080fd5b620001c38262000149565b9392505050565b60805160a05161326c62000202600039600081816051015260db01526000818160ac0152818161013801526102e4015261326c6000f3fe60806040523480156200001157600080fd5b5060043610620000465760003560e01c806317d8ec7f146200004b5780632e0b420d146200008f578063fc0c546a14620000a6575b600080fd5b620000737f000000000000000000000000000000000000000000000000000000000000000081565b6040516001600160a01b03909116815260200160405180910390f35b62000073620000a036600462000ae4565b620000ce565b620000737f000000000000000000000000000000000000000000000000000000000000000081565b6000336001600160a01b037f0000000000000000000000000000000000000000000000000000000000000000161462000119576040516282b42960e81b815260040160405180910390fd5b620001288686868686620004ab565b60006040518061012001604052807f00000000000000000000000000000000000000000000000000000000000000006001600160a01b031681526020018860000160208101906200017a919062000b95565b6001600160a01b031681526020018860200160208101906200019d919062000b95565b6001600160a01b031681526020018860400135815260200188606001358152602001886080013581526020018860a0013581526020018860c0013581526020018860e001358152509050600081604051620001f89062000a87565b81516001600160a01b03908116825260208084015182169083015260408084015190911690820152606080830151908201526080808301519082015260a0808301519082015260c0808301519082015260e08083015190820152610100918201519181019190915261012001604051809103906000f08015801562000281573d6000803e3d6000fd5b509250829050856000805b828110156200035b576200031d8a8a83818110620002ae57620002ae62000bba565b9050602002016020810190620002c5919062000b95565b878a8a85818110620002db57620002db62000bba565b905060200201357f00000000000000000000000000000000000000000000000000000000000000006001600160a01b031662000857909392919063ffffffff16565b87878281811062000332576200033262000bba565b905060200201358262000346919062000be6565b9150620003538162000c02565b90506200028c565b50811580159062000370575089604001358114155b15620003a1576040805163fe4416b560e01b8152908b01356004820152602481018290526044015b60405180910390fd5b60405163877cffff60e01b81526001600160a01b0384169063877cffff90620003d7908c908c908c908c90889060040162000c1e565b600060405180830381600087803b158015620003f257600080fd5b505af115801562000407573d6000803e3d6000fd5b506200041e9250505060408b0160208c0162000b95565b6001600160a01b03166200043660208c018c62000b95565b6001600160a01b0316866001600160a01b03167f57410d9b2bb1ecd6f9e3ed746a0518ab3a8788b28bc0279cdb89dc173ca2b0bf8d60400135868f6060013560405162000496939291909283526020830191909152604082015260600190565b60405180910390a45050505095945050505050565b6000620004bc602087018762000b95565b6001600160a01b03161480620004ec57506000620004e1604087016020880162000b95565b6001600160a01b0316145b156200050b5760405163e6c4247b60e01b815260040160405180910390fd5b6040850135158062000521575042856060013511155b1562000540576040516306b7c75960e31b815260040160405180910390fd5b6080850135158062000554575060e0850135155b1562000573576040516306b7c75960e31b815260040160405180910390fd5b60a0850135158015906200058e575084608001358560a00135105b15620005ad576040516306b7c75960e31b815260040160405180910390fd5b60c085013515801590620005c8575084608001358560c00135105b15620005e7576040516306b7c75960e31b815260040160405180910390fd5b82818114620006095760405163077ba34560e21b815260040160405180910390fd5b60c0860135158015906200062057508560c0013581115b156200063f576040516306b7c75960e31b815260040160405180910390fd5b806000036200064f575062000850565b600080620006628360408a013562000cbe565b90506000620006768460408b013562000cd5565b156200068457600162000687565b60005b620006969060ff168362000be6565b905060005b8481101562000817576000898983818110620006bb57620006bb62000bba565b9050602002016020810190620006d2919062000b95565b90506000888884818110620006eb57620006eb62000bba565b60200291909101359150506001600160a01b03821615806200070b575080155b156200072a5760405163077ba34560e21b815260040160405180910390fd5b848110806200073857508381115b156200076957604051635e06cb7b60e11b815260048101869052602481018590526044810182905260640162000398565b60005b83811015620007f257826001600160a01b03168c8c8381811062000794576200079462000bba565b9050602002016020810190620007ab919062000b95565b6001600160a01b031603620007df576040516311e38fdd60e11b81526001600160a01b038416600482015260240162000398565b620007ea8162000c02565b90506200076c565b50620007ff818762000be6565b95505050806200080f9062000c02565b90506200069b565b50886040013583146200084b576040805163fe4416b560e01b8152908a013560048201526024810184905260440162000398565b505050505b5050505050565b6040516370a0823160e01b81526001600160a01b038381166004830152600091908616906370a0823190602401602060405180830381865afa158015620008a2573d6000803e3d6000fd5b505050506040513d601f19601f82011682018060405250810190620008c8919062000cec565b9050620008d8858585856200098c565b6040516370a0823160e01b81526001600160a01b038481166004830152600091908716906370a0823190602401602060405180830381865afa15801562000923573d6000803e3d6000fd5b505050506040513d601f19601f8201168201806040525081019062000949919062000cec565b9050818110806200096557508262000962838362000d06565b14155b15620009845760405163321646df60e11b815260040160405180910390fd5b505050505050565b604080516001600160a01b0385811660248301528481166044830152606480830185905283518084039091018152608490920183526020820180516001600160e01b03166323b872dd60e01b1790529151600092839290881691620009f2919062000d1c565b6000604051808303816000865af19150503d806000811462000a31576040519150601f19603f3d011682016040523d82523d6000602084013e62000a36565b606091505b509150915081158062000a68575080511580159062000a6857508080602001905181019062000a66919062000d4d565b155b15620009845760405163f405907160e01b815260040160405180910390fd5b6124c58062000d7283390190565b60008083601f84011262000aa857600080fd5b50813567ffffffffffffffff81111562000ac157600080fd5b6020830191508360208260051b850101111562000add57600080fd5b9250929050565b600080600080600085870361014081121562000aff57600080fd5b6101008082121562000b1057600080fd5b879650860135905067ffffffffffffffff8082111562000b2f57600080fd5b62000b3d89838a0162000a95565b909650945061012088013591508082111562000b5857600080fd5b5062000b678882890162000a95565b969995985093965092949392505050565b80356001600160a01b038116811462000b9057600080fd5b919050565b60006020828403121562000ba857600080fd5b62000bb38262000b78565b9392505050565b634e487b7160e01b600052603260045260246000fd5b634e487b7160e01b600052601160045260246000fd5b8082018082111562000bfc5762000bfc62000bd0565b92915050565b60006001820162000c175762000c1762000bd0565b5060010190565b6060808252810185905260008660808301825b8881101562000c63576001600160a01b0362000c4d8462000b78565b1682526020928301929091019060010162000c31565b5083810360208501528581526001600160fb1b0386111562000c8457600080fd5b8560051b915081876020830137604093909301939093525001602001949350505050565b634e487b7160e01b600052601260045260246000fd5b60008262000cd05762000cd062000ca8565b500490565b60008262000ce75762000ce762000ca8565b500690565b60006020828403121562000cff57600080fd5b5051919050565b8181038181111562000bfc5762000bfc62000bd0565b6000825160005b8181101562000d3f576020818601810151858301520162000d23565b506000920191825250919050565b60006020828403121562000d6057600080fd5b8151801515811462000bb357600080fdfe6101c060405260016000553480156200001757600080fd5b50604051620024c5380380620024c58339810160408190526200003a9162000220565b80516001600160a01b031615806200005d575060208101516001600160a01b0316155b8062000074575060408101516001600160a01b0316155b15620000935760405163e6c4247b60e01b815260040160405180910390fd5b60608101511580620000a9575042816080015111155b80620000b7575060a0810151155b80620000c65750610100810151155b15620000e5576040516306b7c75960e31b815260040160405180910390fd5b60c0810151158015906200010057508060a001518160c00151105b156200011f576040516306b7c75960e31b815260040160405180910390fd5b60e0810151158015906200013a57508060a001518160e00151105b1562000159576040516306b7c75960e31b815260040160405180910390fd5b80516001600160a01b0390811660809081523360a09081526020840151831660c0908152604085015190931660e09081526060850151610100908152928501516101205290840151610140529183015161016052908201516101805201516101a0526001805460ff19169055620002b9565b60405161012081016001600160401b0381118282101715620001fd57634e487b7160e01b600052604160045260246000fd5b60405290565b80516001600160a01b03811681146200021b57600080fd5b919050565b600061012082840312156200023457600080fd5b6200023e620001cb565b620002498362000203565b8152620002596020840162000203565b60208201526200026c6040840162000203565b6040820152606083015160608201526080830151608082015260a083015160a082015260c083015160c082015260e083015160e08201526101008084015181830152508091505092915050565b60805160a05160c05160e05161010051610120516101405161016051610180516101a05161209b6200042a6000396000818161022f01526108b201526000818161020801528181610de401528181610e0e01528181610fa001528181610fca015281816111b501526111df0152600081816102e601528181610661015261068b01526000818161039f015281816106df0152611887015260008181610256015281816106b401528181610da101528181610eed015261184601526000818161029001528181610b7f01528181610e4201528181611011015281816112aa015281816112d80152818161147e015281816114a8015281816114df015261190e0152600081816103c601528181610adc01528181610cea0152610d11015260008181610487015281816107e801526117a9015260008181610430015261111e0152600081816104ae015281816109eb01528181610bf801528181610cc8015281816110700152611691015261209b6000f3fe608060405234801561001057600080fd5b50600436106101da5760003560e01c806379e66b4611610104578063c0e0ca61116100a2578063d299cfde11610071578063d299cfde14610472578063e0cb4ab11461047a578063f851a44014610482578063fc0c546a146104a957600080fd5b8063c0e0ca6114610408578063c19d93fb14610411578063c45a01551461042b578063c884ef831461045257600080fd5b8063a340cf79116100de578063a340cf791461037a578063a54cd4f71461039a578063a5ff7651146103c1578063b5545a3c1461040057600080fd5b806379e66b4614610321578063877cffff14610334578063877f4e121461034757600080fd5b80633c5e6c971161017c5780634fa57a621161014b5780634fa57a62146102e1578063626fc79d14610308578063657626ec146103105780637060a8011461031957600080fd5b80633c5e6c971461028b57806344b11be9146102b25780634c4f0c17146102bb5780634e14445f146102ce57600080fd5b80632913daa0116101b85780632913daa01461022a57806329dcb0cf14610251578063362f04c0146102785780633871bda51461028157600080fd5b8063023f4147146101df578063218d37d6146101fb57806324924bf714610203575b600080fd5b6101e860045481565b6040519081526020015b60405180910390f35b6101e86104d0565b6101e87f000000000000000000000000000000000000000000000000000000000000000081565b6101e87f000000000000000000000000000000000000000000000000000000000000000081565b6101e87f000000000000000000000000000000000000000000000000000000000000000081565b6101e860025481565b6102896105ba565b005b6101e87f000000000000000000000000000000000000000000000000000000000000000081565b6101e860035481565b6101e86102c9366004611da6565b610786565b6102896102dc366004611e1b565b6107bd565b6101e87f000000000000000000000000000000000000000000000000000000000000000081565b610289610ab1565b6101e860065481565b6101e8610d7d565b61028961032f366004611e67565b610e6d565b610289610342366004611e89565b611113565b61036a610355366004611da6565b60096020526000908152604090205460ff1681565b60405190151581526020016101f2565b6101e8610388366004611da6565b60076020526000908152604090205481565b6101e87f000000000000000000000000000000000000000000000000000000000000000081565b6103e87f000000000000000000000000000000000000000000000000000000000000000081565b6040516001600160a01b0390911681526020016101f2565b610289611569565b6101e860055481565b60015461041e9060ff1681565b6040516101f29190611f13565b6103e87f000000000000000000000000000000000000000000000000000000000000000081565b6101e8610460366004611da6565b60086020526000908152604090205481565b6101e86116f5565b61028961177e565b6103e87f000000000000000000000000000000000000000000000000000000000000000081565b6103e87f000000000000000000000000000000000000000000000000000000000000000081565b60008060015460ff1660038111156104ea576104ea611efd565b148061050c5750600360015460ff16600381111561050a5761050a611efd565b145b806105175750600254155b156105225750600090565b6000600260015460ff16600381111561053d5761053d611efd565b1461054a5760025461054e565b6003545b9050600061055b82611907565b905060006105698383611f51565b9050806004541161057e576000935050505090565b60008160045461058e9190611f68565b905060055481116105a457600094505050505090565b6005546105b19082611f68565b94505050505090565b3332146105da5760405163d26e878f60e01b815260040160405180910390fd5b6002600054036105fd57604051633ee5aeb560e01b815260040160405180910390fd5b60026000556001805460ff16600381111561061a5761061a611efd565b146106385760405163baf3f0f760e01b815260040160405180910390fd5b600254600081900361065d576040516308b6a47360e41b815260040160405180910390fd5b60007f0000000000000000000000000000000000000000000000000000000000000000158015906106ae57507f00000000000000000000000000000000000000000000000000000000000000008210155b905060007f0000000000000000000000000000000000000000000000000000000000000000421015801561070257507f00000000000000000000000000000000000000000000000000000000000000008310155b905081158015610710575080155b1561072e5760405163ce3c68ef60e01b815260040160405180910390fd5b6001805460ff191660021790556003839055827f2332f605f103f586116f52d309ca726043932c8fc70516fd9ce159adde02aa0d61076b82611907565b60405190815260200160405180910390a25050600160005550565b6001600160a01b03811660009081526009602052604081205460ff166107ae57506000919050565b6107b782611933565b92915050565b3332146107dd5760405163d26e878f60e01b815260040160405180910390fd5b336001600160a01b037f00000000000000000000000000000000000000000000000000000000000000001614610825576040516282b42960e81b815260040160405180910390fd5b60026000540361084857604051633ee5aeb560e01b815260040160405180910390fd5b6002600081905560015460ff16600381111561086657610866611efd565b146108845760405163baf3f0f760e01b815260040160405180910390fd5b8160008190036108a75760405163c2e5347d60e01b815260040160405180910390fd5b818111806108d457507f000000000000000000000000000000000000000000000000000000000000000081115b156108f2576040516305beb17160e11b815260040160405180910390fd5b60006108ff600354611907565b905060008060005b84811015610a6857600088888381811061092357610923611f7b565b90506020020160208101906109389190611da6565b6001600160a01b03811660009081526009602052604090205490915060ff166109615750610a58565b600061096d82876119fa565b90508060000361097e575050610a58565b6001600160a01b038216600090815260086020526040812080548392906109a6908490611f91565b9250508190555080600560008282546109bf9190611f91565b909155506109cf90508185611f91565b93506109dc600186611f91565b9450610a126001600160a01b037f0000000000000000000000000000000000000000000000000000000000000000168383611a69565b816001600160a01b03167f358fe4192934d3bf28ae181feda1f4bd08ca67f5e2fad55582cce5eb67304ae982604051610a4d91815260200190565b60405180910390a250505b610a6181611fa4565b9050610907565b50817fd1cca60392084a2bc8a94c7b8a43790bb6071590e9c1b54472353998351f67d182604051610a9b91815260200190565b60405180910390a2505060016000555050505050565b333214610ad15760405163d26e878f60e01b815260040160405180910390fd5b336001600160a01b037f00000000000000000000000000000000000000000000000000000000000000001614610b19576040516282b42960e81b815260040160405180910390fd5b600260005403610b3c57604051633ee5aeb560e01b815260040160405180910390fd5b6002600081905560015460ff166003811115610b5a57610b5a611efd565b14610b785760405163baf3f0f760e01b815260040160405180910390fd5b60006006547f0000000000000000000000000000000000000000000000000000000000000000610ba89190611f68565b905080600003610bcb576040516312d37ee560e31b815260040160405180910390fd5b6000610bd56104d0565b6040516370a0823160e01b81523060048201529091506000906001600160a01b037f000000000000000000000000000000000000000000000000000000000000000016906370a0823190602401602060405180830381865afa158015610c3f573d6000803e3d6000fd5b505050506040513d601f19601f82011682018060405250810190610c639190611fbd565b90506000610c718484611f91565b905080821015610ca357604051630593ed7d60e11b815260048101839052602481018290526044015b60405180910390fd5b8360066000828254610cb59190611f91565b90915550610d0f90506001600160a01b037f0000000000000000000000000000000000000000000000000000000000000000167f000000000000000000000000000000000000000000000000000000000000000086611a69565b7f00000000000000000000000000000000000000000000000000000000000000006001600160a01b03167f271464f2b82be19deeb2bd846cba278195e68220f39f0f9b4bcd48144742220785604051610d6a91815260200190565b60405180910390a2505060016000555050565b60006001805460ff166003811115610d9757610d97611efd565b141580610dc457507f00000000000000000000000000000000000000000000000000000000000000004210155b15610dcf5750600090565b60006002546001610de09190611f91565b90507f000000000000000000000000000000000000000000000000000000000000000015801590610e3057507f000000000000000000000000000000000000000000000000000000000000000081115b15610e3d57600091505090565b610e677f000000000000000000000000000000000000000000000000000000000000000082611b53565b91505090565b333214610e8d5760405163d26e878f60e01b815260040160405180910390fd5b600260005403610eb057604051633ee5aeb560e01b815260040160405180910390fd5b60026000556001805460ff166003811115610ecd57610ecd611efd565b14610eeb5760405163baf3f0f760e01b815260040160405180910390fd5b7f00000000000000000000000000000000000000000000000000000000000000004210610f2b57604051639578d08d60e01b815260040160405180910390fd5b3360009081526009602052604090205460ff1615610f5b57604051621d934160e11b815260040160405180910390fd5b6002548214610f8b576002546040516368eb463d60e11b8152610c9a918491600401918252602082015260400190565b60006002546001610f9c9190611f91565b90507f000000000000000000000000000000000000000000000000000000000000000015801590610fec57507f000000000000000000000000000000000000000000000000000000000000000081115b1561100a57604051636c8c8d2160e01b815260040160405180910390fd5b60006110367f000000000000000000000000000000000000000000000000000000000000000083611b53565b9050828111156110635760405163878c908160e01b81526004810182905260248101849052604401610c9a565b6110986001600160a01b037f000000000000000000000000000000000000000000000000000000000000000016333084611b8b565b336000908152600960209081526040808320805460ff19166001179055600790915281208290556002839055600480548392906110d6908490611f91565b9091555050604080518281526020810184905233917f16a5410c80ce4d4082839ea17ff9fae01b3924da3e586c0e4ba3cdb1c9f7dae29101610d6a565b336001600160a01b037f0000000000000000000000000000000000000000000000000000000000000000161461115b576040516282b42960e81b815260040160405180910390fd5b600060015460ff16600381111561117457611174611efd565b146111925760405163baf3f0f760e01b815260040160405180910390fd5b838281146111b3576040516306b7c75960e31b815260040160405180910390fd5b7f00000000000000000000000000000000000000000000000000000000000000001580159061120157507f000000000000000000000000000000000000000000000000000000000000000081115b1561121f57604051636c8c8d2160e01b815260040160405180910390fd5b806000036112a15781156112505760405163fe4416b560e01b81526000600482015260248101839052604401610c9a565b6000600281905560048190556001805460ff1916811790556040518181527f808f8d6bd684eba537922bbaa5e628a1b3992e746810d259e50c52e3c298ef4b9060200160405180910390a250611562565b6000806112ce837f0000000000000000000000000000000000000000000000000000000000000000611fec565b905060006112fc847f0000000000000000000000000000000000000000000000000000000000000000612000565b1561130857600161130b565b60005b6113189060ff1683611f91565b905060005b8481101561147b5760008a8a8381811061133957611339611f7b565b905060200201602081019061134e9190611da6565b9050600089898481811061136457611364611f7b565b60200291909101359150506001600160a01b0382166113965760405163e6c4247b60e01b815260040160405180910390fd5b806000036113b7576040516306b7c75960e31b815260040160405180910390fd5b848110806113c457508381115b156113f357604051635e06cb7b60e11b8152600481018690526024810185905260448101829052606401610c9a565b6001600160a01b03821660009081526009602052604090205460ff161561142c57604051621d934160e11b815260040160405180910390fd5b6001600160a01b0382166000908152600960209081526040808320805460ff19166001179055600790915290208190556114668187611f91565b955050508061147490611fa4565b905061131d565b507f0000000000000000000000000000000000000000000000000000000000000000831415806114cb57507f00000000000000000000000000000000000000000000000000000000000000008514155b156115125760405163fe4416b560e01b81527f0000000000000000000000000000000000000000000000000000000000000000600482015260248101849052604401610c9a565b600284905560048590556001805460ff19168117905560405185815284907f808f8d6bd684eba537922bbaa5e628a1b3992e746810d259e50c52e3c298ef4b9060200160405180910390a2505050505b5050505050565b3332146115895760405163d26e878f60e01b815260040160405180910390fd5b6002600054036115ac57604051633ee5aeb560e01b815260040160405180910390fd5b6002600090815560015460ff1660038111156115ca576115ca611efd565b036115e85760405163baf3f0f760e01b815260040160405180910390fd5b3360009081526009602052604090205460ff166116185760405163721c7c6760e11b815260040160405180910390fd5b600061162333611933565b905080600003611646576040516312d37ee560e31b815260040160405180910390fd5b3360009081526008602052604081208054839290611665908490611f91565b92505081905550806005600082825461167e9190611f91565b909155506116b890506001600160a01b037f0000000000000000000000000000000000000000000000000000000000000000163383611a69565b60405181815233907f358fe4192934d3bf28ae181feda1f4bd08ca67f5e2fad55582cce5eb67304ae99060200160405180910390a2506001600055565b60008060015460ff16600381111561170f5761170f611efd565b148061171b5750600254155b8061173c5750600360015460ff16600381111561173a5761173a611efd565b145b156117475750600090565b6000600260015460ff16600381111561176257611762611efd565b1461176f57600254611773565b6003545b9050610e6781611907565b33321461179e5760405163d26e878f60e01b815260040160405180910390fd5b336001600160a01b037f000000000000000000000000000000000000000000000000000000000000000016146117e6576040516282b42960e81b815260040160405180910390fd5b60026000540361180957604051633ee5aeb560e01b815260040160405180910390fd5b60026000556001805460ff16600381111561182657611826611efd565b146118445760405163baf3f0f760e01b815260040160405180910390fd5b7f000000000000000000000000000000000000000000000000000000000000000042101561188557604051633376277360e11b815260040160405180910390fd5b7f0000000000000000000000000000000000000000000000000000000000000000600254106118c7576040516320631d7f60e21b815260040160405180910390fd5b6001805460ff191660031790556002546040517fcce08ae908f7a0040af9ee144fb6f08aac6417139372ccbd0aefae5a7b73c09190600090a26001600055565b60006107b77f000000000000000000000000000000000000000000000000000000000000000083611b53565b6001600160a01b0381166000908152600860209081526040808320546007909252822054600360015460ff16600381111561197057611970611efd565b0361199857818111611986575060009392505050565b6119908282611f68565b949350505050565b6000600260015460ff1660038111156119b3576119b3611efd565b146119c0576002546119c4565b6003545b9050806000036119d957506000949350505050565b60006119e482611907565b90506119f086826119fa565b9695505050505050565b6001600160a01b038216600090815260076020526040812054828111611a245760009150506107b7565b6000611a308483611f68565b6001600160a01b038616600090815260086020526040902054909150808211611a5f57600093505050506107b7565b6119f08183611f68565b604080516001600160a01b038481166024830152604480830185905283518084039091018152606490920183526020820180516001600160e01b031663a9059cbb60e01b1790529151600092839290871691611ac59190612014565b6000604051808303816000865af19150503d8060008114611b02576040519150601f19603f3d011682016040523d82523d6000602084013e611b07565b606091505b5091509150811580611b355750805115801590611b35575080806020019051810190611b339190612043565b155b156115625760405163fb7f507960e01b815260040160405180910390fd5b60008215611b815781611b67600185611f68565b611b719190611fec565b611b7c906001611f91565b611b84565b60005b9392505050565b6040516370a0823160e01b81526001600160a01b038381166004830152600091908616906370a0823190602401602060405180830381865afa158015611bd5573d6000803e3d6000fd5b505050506040513d601f19601f82011682018060405250810190611bf99190611fbd565b9050611c0785858585611cb4565b6040516370a0823160e01b81526001600160a01b038481166004830152600091908716906370a0823190602401602060405180830381865afa158015611c51573d6000803e3d6000fd5b505050506040513d601f19601f82011682018060405250810190611c759190611fbd565b905081811080611c8e575082611c8b8383611f68565b14155b15611cac5760405163321646df60e11b815260040160405180910390fd5b505050505050565b604080516001600160a01b0385811660248301528481166044830152606480830185905283518084039091018152608490920183526020820180516001600160e01b03166323b872dd60e01b1790529151600092839290881691611d189190612014565b6000604051808303816000865af19150503d8060008114611d55576040519150601f19603f3d011682016040523d82523d6000602084013e611d5a565b606091505b5091509150811580611d885750805115801590611d88575080806020019051810190611d869190612043565b155b15611cac5760405163f405907160e01b815260040160405180910390fd5b600060208284031215611db857600080fd5b81356001600160a01b0381168114611b8457600080fd5b60008083601f840112611de157600080fd5b50813567ffffffffffffffff811115611df957600080fd5b6020830191508360208260051b8501011115611e1457600080fd5b9250929050565b600080600060408486031215611e3057600080fd5b833567ffffffffffffffff811115611e4757600080fd5b611e5386828701611dcf565b909790965060209590950135949350505050565b60008060408385031215611e7a57600080fd5b50508035926020909101359150565b600080600080600060608688031215611ea157600080fd5b853567ffffffffffffffff80821115611eb957600080fd5b611ec589838a01611dcf565b90975095506020880135915080821115611ede57600080fd5b50611eeb88828901611dcf565b96999598509660400135949350505050565b634e487b7160e01b600052602160045260246000fd5b6020810160048310611f3557634e487b7160e01b600052602160045260246000fd5b91905290565b634e487b7160e01b600052601160045260246000fd5b80820281158282048414176107b7576107b7611f3b565b818103818111156107b7576107b7611f3b565b634e487b7160e01b600052603260045260246000fd5b808201808211156107b7576107b7611f3b565b600060018201611fb657611fb6611f3b565b5060010190565b600060208284031215611fcf57600080fd5b5051919050565b634e487b7160e01b600052601260045260246000fd5b600082611ffb57611ffb611fd6565b500490565b60008261200f5761200f611fd6565b500690565b6000825160005b81811015612035576020818601810151858301520161201b565b506000920191825250919050565b60006020828403121561205557600080fd5b81518015158114611b8457600080fdfea2646970667358221220f76d4a48b2e1e7df19c2cb17ff5f0b7a1c77a14ef83a6b7ddf8f1d1349b514a664736f6c63430008140033a2646970667358221220a91286f6ef1abb785b212ff178d96c5bd9b83d8fafe86da92f8cfc2d38d66e3b64736f6c63430008140033",
    "linkReferences": {}
  },
  "methodIdentifiers": {
    "createRoundWithSeed((address,address,uint256,uint256,uint256,uint256,uint256,uint256),address[],uint256[])": "2e0b420d",
    "factoryAdmin()": "17d8ec7f",
    "token()": "fc0c546a"
  },
  "id": 1
}