{
  "abi": [
    {
      "inputs": [
        {
          "internalType": "string",
          "name": "name_",
          "type": "string"
        },
        {
          "internalType": "string",
          "name": "symbol_",
          "type": "string"
        },
        {
          "internalType": "uint8",
          "name": "decimals_",
          "type": "uint8"
        },
        {
          "internalType": "uint256",
          "name": "feeBps_",
          "type": "uint256"
        }
      ],
      "stateMutability": "nonpayable",
      "type": "constructor"
    },
    {
      "anonymous": false,
      "inputs": [
        {
          "indexed": true,
          "internalType": "address",
          "name": "owner",
          "type": "address"
        },
        {
          "indexed": true,
          "internalType": "address",
          "name": "spender",
          "type": "address"
        },
        {
          "indexed": false,
          "internalType": "uint256",
          "name": "value",
          "type": "uint256"
        }
      ],
      "name": "Approval",
      "type": "event"
    },
    {
      "anonymous": false,
      "inputs": [
        {
          "indexed": true,
          "internalType": "address",
          "name": "from",
          "type": "address"
        },
        {
          "indexed": true,
          "internalType": "address",
          "name": "to",
          "type": "address"
        },
        {
          "indexed": false,
          "internalType": "uint256",
          "name": "value",
          "type": "uint256"
        }
      ],
      "name": "Transfer",
      "type": "event"
    },
    {
      "inputs": [
        {
          "internalType": "address",
          "name": "owner",
          "type": "address"
        },
        {
          "internalType": "address",
          "name": "spender",
          "type": "address"
        }
      ],
      "name": "allowance",
      "outputs": [
        {
          "internalType": "uint256",
          "name": "",
          "type": "uint256"
        }
      ],
      "stateMutability": "view",
      "type": "function"
    },
    {
      "inputs": [
        {
          "internalType": "address",
          "name": "spender",
          "type": "address"
        },
        {
          "internalType": "uint256",
          "name": "amount",
          "type": "uint256"
        }
      ],
      "name": "approve",
      "outputs": [
        {
          "internalType": "bool",
          "name": "",
          "type": "bool"
        }
      ],
      "stateMutability": "nonpayable",
      "type": "function"
    },
    {
      "inputs": [
        {
          "internalType": "address",
          "name": "account",
          "type": "address"
        }
      ],
      "name": "balanceOf",
      "outputs": [
        {
          "internalType": "uint256",
          "name": "",
          "type": "uint256"
        }
      ],
      "stateMutability": "view",
      "type": "function"
    },
    {
      "inputs": [],
      "name": "decimals",
      "outputs": [
        {
          "internalType": "uint8",
          "name": "",
          "type": "uint8"
        }
      ],
      "stateMutability": "view",
      "type": "function"
    },
    {
      "inputs": [],
      "name": "feeBps",
      "outputs": [
        {
          "internalType": "uint256",
          "name": "",
          "type": "uint256"
        }
      ],
      "stateMutability": "view",
      "type": "function"
    },
    {
      "inputs": [
        {
          "internalType": "address",
          "name": "to",
          "type": "address"
        },
        {
          "internalType": "uint256",
          "name": "amount",
          "type": "uint256"
        }
      ],
      "name": "mint",
      "outputs": [],
      "stateMutability": "nonpayable",
      "type": "function"
    },
    {
      "inputs": [],
      "name": "name",
      "outputs": [
        {
          "internalType": "string",
          "name": "",
          "type": "string"
        }
      ],
      "stateMutability": "view",
      "type": "function"
    },
    {
      "inputs": [],
      "name": "symbol",
      "outputs": [
        {
          "internalType": "string",
          "name": "",
          "type": "string"
        }
      ],
      "stateMutability": "view",
      "type": "function"
    },
    {
      "inputs": [],
      "name": "totalSupply",
      "outputs": [
        {
          "internalType": "uint256",
          "name": "",
          "type": "uint256"
        }
      ],
      "stateMutability": "view",
      "type": "function"
    },
    {
      "inputs": [
        {
          "internalType": "address",
          "name": "to",
          "type": "address"
        },
        {
          "internalType": "uint256",
          "name": "amount",
          "type": "uint256"
        }
      ],
      "name": "transfer",
      "outputs": [
        {
          "internalType": "bool",
          "name": "",
          "type": "bool"
        }
      ],
      "stateMutability": "nonpayable",
      "type": "function"
    },
    {
      "inputs": [
        {
          "internalType": "address",
          "name": "from",
          "type": "address"
        },
        {
          "internalType": "address",
          "name": "to",
          "type": "address"
        },
        {
          "internalType": "uint256",
          "name": "amount",
          "type": "uint256"
        }
      ],
      "name": "transferFrom",
      "outputs": [
        {
          "internalType": "bool",
          "name": "",
          "type": "bool"
        }
      ],
      "stateMutability": "nonpayable",
      "type": "function"
    }
  ],
  "bytecode": {
    "object": "0x60c06040523480156200001157600080fd5b5060405162000c7338038062000c7383398101604081905262000034916200016c565b838383600062000045848262000286565b50600162000054838262000286565b5060ff1660805250506127108111156200009a5760405162461bcd60e51b815260206004820152600360248201526246454560e81b604482015260640160405180910390fd5b60a0525062000352915050565b634e487b7160e01b600052604160045260246000fd5b600082601f830112620000cf57600080fd5b81516001600160401b0380821115620000ec57620000ec620000a7565b604051601f8301601f19908116603f01168101908282118183101715620001175762000117620000a7565b816040528381526020925086838588010111156200013457600080fd5b600091505b8382101562000158578582018301518183018401529082019062000139565b600093810190920192909252949350505050565b600080600080608085870312156200018357600080fd5b84516001600160401b03808211156200019b57600080fd5b620001a988838901620000bd565b95506020870151915080821115620001c057600080fd5b50620001cf87828801620000bd565b935050604085015160ff81168114620001e757600080fd5b6060959095015193969295505050565b600181811c908216806200020c57607f821691505b6020821081036200022d57634e487b7160e01b600052602260045260246000fd5b50919050565b601f8211156200028157600081815260208120601f850160051c810160208610156200025c5750805b601f850160051c820191505b818110156200027d5782815560010162000268565b5050505b505050565b81516001600160401b03811115620002a257620002a2620000a7565b620002ba81620002b38454620001f7565b8462000233565b602080601f831160018114620002f25760008415620002d95750858301515b600019600386901b1c1916600185901b1785556200027d565b600085815260208120601f198616915b82811015620003235788860151825594840194600190910190840162000302565b5085821015620003425787850151600019600388901b60f8161c191681555b5050505050600190811b01905550565b60805160a0516108f46200037f60003960008181610119015261049c0152600061014001526108f46000f3fe608060405234801561001057600080fd5b50600436106100a95760003560e01c8063313ce56711610071578063313ce5671461013b57806340c10f191461017457806370a082311461018957806395d89b41146101b2578063a9059cbb146101ba578063dd62ed3e146101cd57600080fd5b806306fdde03146100ae578063095ea7b3146100cc57806318160ddd146100ef57806323b872dd1461010157806324a9d85314610114575b600080fd5b6100b6610206565b6040516100c391906106ea565b60405180910390f35b6100df6100da366004610754565b610294565b60405190151581526020016100c3565b6002545b6040519081526020016100c3565b6100df61010f36600461077e565b610301565b6100f37f000000000000000000000000000000000000000000000000000000000000000081565b6101627f000000000000000000000000000000000000000000000000000000000000000081565b60405160ff90911681526020016100c3565b610187610182366004610754565b6103e6565b005b6100f36101973660046107ba565b6001600160a01b031660009081526003602052604090205490565b6100b661046f565b6100df6101c8366004610754565b61047c565b6100f36101db3660046107dc565b6001600160a01b03918216600090815260046020908152604080832093909416825291909152205490565b600080546102139061080f565b80601f016020809104026020016040519081016040528092919081815260200182805461023f9061080f565b801561028c5780601f106102615761010080835404028352916020019161028c565b820191906000526020600020905b81548152906001019060200180831161026f57829003601f168201915b505050505081565b3360008181526004602090815260408083206001600160a01b038716808552925280832085905551919290917f8c5be1e5ebec7d5bd14f71427d1e84f3dd0314c0f7b2291e5b200ac8c7c3b925906102ef9086815260200190565b60405180910390a35060015b92915050565b6001600160a01b038316600090815260046020908152604080832033845290915281205460001981146103d0578281101561036f5760405162461bcd60e51b8152602060048201526009602482015268414c4c4f57414e434560b81b60448201526064015b60405180910390fd5b6001600160a01b038516600081815260046020908152604080832033808552908352928190208786039081905590519081529192917f8c5be1e5ebec7d5bd14f71427d1e84f3dd0314c0f7b2291e5b200ac8c7c3b925910160405180910390a35b6103db858585610492565b506001949350505050565b80600260008282546103f8919061085f565b90915550506001600160a01b0382166000908152600360205260408120805483929061042590849061085f565b90915550506040518181526001600160a01b038316906000907fddf252ad1be2c89b69c2b068fc378daa952ba7f163c4a11628f55a4df523b3ef9060200160405180910390a35050565b600180546102139061080f565b6000610489338484610492565b50600192915050565b60006127106104c17f000000000000000000000000000000000000000000000000000000000000000084610872565b6104cb9190610889565b905060006104d982846108ab565b90506104e68585836104fd565b81156104f6576104f68583610637565b5050505050565b6001600160a01b0383161580159061051d57506001600160a01b03821615155b6105535760405162461bcd60e51b81526020600482015260076024820152664144445245535360c81b6044820152606401610366565b6001600160a01b038316600090815260036020526040902054818110156105a65760405162461bcd60e51b815260206004820152600760248201526642414c414e434560c81b6044820152606401610366565b6001600160a01b038085166000908152600360205260408082208585039055918516815290812080548492906105dd90849061085f565b92505081905550826001600160a01b0316846001600160a01b03167fddf252ad1be2c89b69c2b068fc378daa952ba7f163c4a11628f55a4df523b3ef8460405161062991815260200190565b60405180910390a350505050565b6001600160a01b0382166000908152600360205260409020548181101561068a5760405162461bcd60e51b815260206004820152600760248201526642414c414e434560c81b6044820152606401610366565b6001600160a01b03831660008181526003602090815260408083208686039055600280548790039055518581529192917fddf252ad1be2c89b69c2b068fc378daa952ba7f163c4a11628f55a4df523b3ef910160405180910390a3505050565b600060208083528351808285015260005b81811015610717578581018301518582016040015282016106fb565b506000604082860101526040601f19601f8301168501019250505092915050565b80356001600160a01b038116811461074f57600080fd5b919050565b6000806040838503121561076757600080fd5b61077083610738565b946020939093013593505050565b60008060006060848603121561079357600080fd5b61079c84610738565b92506107aa60208501610738565b9150604084013590509250925092565b6000602082840312156107cc57600080fd5b6107d582610738565b9392505050565b600080604083850312156107ef57600080fd5b6107f883610738565b915061080660208401610738565b90509250929050565b600181811c9082168061082357607f821691505b60208210810361084357634e487b7160e01b600052602260045260246000fd5b50919050565b634e487b7160e01b600052601160045260246000fd5b808201808211156102fb576102fb610849565b80820281158282048414176102fb576102fb610849565b6000826108a657634e487b7160e01b600052601260045260246000fd5b500490565b818103818111156102fb576102fb61084956fea264697066735822122056de39bfcde035940b9f55428482c5905f49a96f023fff2430708844d8efef0d64736f6c63430008140033",
    "linkReferences": {}
  },
  "methodIdentifiers": {
    "allowance(address,address)": "dd62ed3e",
    "approve(address,uint256)": "095ea7b3",
    "balanceOf(address)": "70a08231",
    "decimals()": "313ce567",
    "feeBps()": "24a9d853",
    "mint(address,uint256)": "40c10f19",
    "name()": "06fdde03",
    "symbol()": "95d89b41",
    "totalSupply()": "18160ddd",
    "transfer(address,uint256)": "a9059cbb",
    "transferFrom(address,address,uint256)": "23b872dd"
  },
  "id": 4
}